:04000000803118280B
:100008007E14803100308600003087004101161EC2
:100018000E280F2816280C1E12281328162882319D
:10002800892280317E10090080311A281530840019
:1000380081308500A0308600003087003230823160
:100048009A22803120308400003085002D308231A2
:10005800A02280317E1040018131D22974087504B4
:100068000319372838283E2874087504031D3D28CD
:100078003E284328720882312C2280318D2874084A
:1000880086007508870049311600010403194D28B8
:100098004E286E2874088600750887004931403F4D
:1000A800F600413FF7007408860075088700423162
:1000B800403FF800413FF9007908803AFA00770894
:1000C800803A7A02031D6A287608780203186D2898
:1000D8006E288D28740886007508870042317408D8
:1000E800840075088500003FF600013FF700403F97
:1000F80076078400413F773D8500720880007408C8
:1001080086007508870042310130810741310318A4
:10011800810A080040014F0886008701403FD1004E
:10012800413FD20051088400520885001200253A48
:10013800031D9F28A028BA284F0886008701013090
:10014800810741310318810AC001C1010030CC0088
:10015800FF30C200FF30C30040014F08860087010E
:100168000130810741310318810AD4284F088600DD
:100178008701403FD100413FD20051088400520816
:1001880085000008D300D4015308F2005408F30096
:100198004E08F5004D08F400803132208031B02837
:1001A800080040019801990110309A0037309200F8
:1001B800F0309300EB30940037307D018C00F03044
:1001C8009600C330A0008D0197010830A1008E0170
:1001D8009801A20137308F00F0309900FF30A3005A
:1001E8003F309000F0309A00C330A40015307C01F5
:1001F800C20013307B01A0007D019101920193019F
:100208009B019C019D01A5010830A600A701B630FD
:10021800F0000230F1008231A62280314101161629
:100228000800483469342C34203454346834693430
:1002380073342034693473342034503449344334AB
:100248003134333431343434353420344E34613439
:100258006E346F3420344B346934743420344E3463
:1002680069346334653420344D346534653474340A
:1002780069346E346734203459346F34753421341A
:100288000D340A340034B6340134003400340034F8
:100298000034B2340234003400343B3402340034C5
:1002A80000340034003400340034003400340034A6
:1002B8000034003400340034003400340034003496
:1002C8000034003400340034003400340034003486
:1002D800003400340034723402346634023400349A
:1002E800003400340034F401F501872973087407D9
:1002F800860087010108F0008231B2228131013085
:10030800F4070030F53D7308F0008131E7218131B1
:1003180071087502031D922970087402031C95293F
:1003280096297A29080040015808FD005708FC0062
:10033800A92940015608CE005508CD007C30CF00D1
:100348005908D00080318E2081317C0884007D08D6
:1003580085001200031DB129B2299D294001D5014C
:10036800D601080048304E019200903090002630A7
:10037800910019308E008F010030F0000030F1003C
:100388008231722281310030F0000030F100823178
:10039800662281314001C801C901080082311C224E
:1003A80081318B170B17A030F30081317721813110
:1003B80059304001DA008230DB0082310C22813171
:1003C800E429803118287008F200EC290130F00780
:1003D8007008860087010108031DF329F429EA291A
:1003E80072087002F000F101F01BF10308001E30E2
:1003F80043019D009C0175309F0000304001DD00E5
:100408000030DE0041018C12803043019E0008005C
:100418005C304001DC000030D500D6005B08D80015
:100428005A08D7005C30D900813197218231080001
:100438008231922282318031D52082318131FB2173
:1004480082318131B621823182317E2282310800A7
:10045800F10082313B228231003A0319342A352ACD
:100468002D2A7108F0008231B22282310800F00191
:100478004101101F402A412A482A4E01911E452A4F
:10048800462A482A0130F0007008080040015F0839
:1004980060040319502A512A562A60088A005F0806
:1004A8000A0082317D01A711080074346534733461
:1004B800743469346E3467342E342E342E340D344B
:1004C8000A3400347008710403196B2A6C2A712AE3
:1004D80071084001C5007008C40008007008710464
:1004E8000319772A782A7D2A71084001C700700805
:1004F800C600080041010C100B140030F000003059
:10050800F1008231AC22823108007D01A71D8D2ABD
:100518008E2A912A82314A228231080060304501B0
:100528008D008F019101930192010800FE001200D5
:100538001E00FE0B9B2A0034640080010131890BE8
:10054800A12A003471084001E0007008DF000800AB
:1005580071084001CB007008CA00080070084E01FD
:060568008D0008000800F0
:020000040001F9
:0A000E008C3FFF3F9F3FFF3FFF3F85
:00000001FF
